{
  "_format": "hh-sol-artifact-1",
  "contractName": "MTERC721Token",
  "sourceName": "contracts/MTERC721Token.sol",
  "abi": [
    {
      "inputs": [],
      "stateMutability": "nonpayable",
      "type": "constructor"
    },
    {
      "anonymous": false,
      "inputs": [
        {
          "indexed": true,
          "internalType": "address",
          "name": "owner",
          "type": "address"
        },
        {
          "indexed": true,
          "internalType": "address",
          "name": "approved",
          "type": "address"
        },
        {
          "indexed": true,
          "internalType": "uint256",
          "name": "tokenId",
          "type": "uint256"
        }
      ],
      "name": "Approval",
      "type": "event"
    },
    {
      "anonymous": false,
      "inputs": [
        {
          "indexed": true,
          "internalType": "address",
          "name": "owner",
          "type": "address"
        },
        {
          "indexed": true,
          "internalType": "address",
          "name": "operator",
          "type": "address"
        },
        {
          "indexed": false,
          "internalType": "bool",
          "name": "approved",
          "type": "bool"
        }
      ],
      "name": "ApprovalForAll",
      "type": "event"
    },
    {
      "anonymous": false,
      "inputs": [
        {
          "indexed": true,
          "internalType": "address",
          "name": "previousOwner",
          "type": "address"
        },
        {
          "indexed": true,
          "internalType": "address",
          "name": "newOwner",
          "type": "address"
        }
      ],
      "name": "OwnershipTransferred",
      "type": "event"
    },
    {
      "anonymous": false,
      "inputs": [
        {
          "indexed": true,
          "internalType": "address",
          "name": "from",
          "type": "address"
        },
        {
          "indexed": true,
          "internalType": "address",
          "name": "to",
          "type": "address"
        },
        {
          "indexed": true,
          "internalType": "uint256",
          "name": "tokenId",
          "type": "uint256"
        }
      ],
      "name": "Transfer",
      "type": "event"
    },
    {
      "inputs": [],
      "name": "MAX_PUBLIC_MINT",
      "outputs": [
        {
          "internalType": "uint256",
          "name": "",
          "type": "uint256"
        }
      ],
      "stateMutability": "view",
      "type": "function"
    },
    {
      "inputs": [],
      "name": "MAX_SUPPLY",
      "outputs": [
        {
          "internalType": "uint256",
          "name": "",
          "type": "uint256"
        }
      ],
      "stateMutability": "view",
      "type": "function"
    },
    {
      "inputs": [],
      "name": "PRICE_PER_TOKEN",
      "outputs": [
        {
          "internalType": "uint256",
          "name": "",
          "type": "uint256"
        }
      ],
      "stateMutability": "view",
      "type": "function"
    },
    {
      "inputs": [],
      "name": "PROVENANCE",
      "outputs": [
        {
          "internalType": "string",
          "name": "",
          "type": "string"
        }
      ],
      "stateMutability": "view",
      "type": "function"
    },
    {
      "inputs": [
        {
          "internalType": "address",
          "name": "to",
          "type": "address"
        },
        {
          "internalType": "uint256",
          "name": "tokenId",
          "type": "uint256"
        }
      ],
      "name": "approve",
      "outputs": [],
      "stateMutability": "nonpayable",
      "type": "function"
    },
    {
      "inputs": [
        {
          "internalType": "address",
          "name": "owner",
          "type": "address"
        }
      ],
      "name": "balanceOf",
      "outputs": [
        {
          "internalType": "uint256",
          "name": "",
          "type": "uint256"
        }
      ],
      "stateMutability": "view",
      "type": "function"
    },
    {
      "inputs": [
        {
          "internalType": "uint256",
          "name": "tokenId",
          "type": "uint256"
        }
      ],
      "name": "getApproved",
      "outputs": [
        {
          "internalType": "address",
          "name": "",
          "type": "address"
        }
      ],
      "stateMutability": "view",
      "type": "function"
    },
    {
      "inputs": [],
      "name": "isAllowListActive",
      "outputs": [
        {
          "internalType": "bool",
          "name": "",
          "type": "bool"
        }
      ],
      "stateMutability": "view",
      "type": "function"
    },
    {
      "inputs": [
        {
          "internalType": "address",
          "name": "owner",
          "type": "address"
        },
        {
          "internalType": "address",
          "name": "operator",
          "type": "address"
        }
      ],
      "name": "isApprovedForAll",
      "outputs": [
        {
          "internalType": "bool",
          "name": "",
          "type": "bool"
        }
      ],
      "stateMutability": "view",
      "type": "function"
    },
    {
      "inputs": [
        {
          "internalType": "uint256",
          "name": "numberOfTokens",
          "type": "uint256"
        }
      ],
      "name": "mint",
      "outputs": [],
      "stateMutability": "payable",
      "type": "function"
    },
    {
      "inputs": [
        {
          "internalType": "uint8",
          "name": "numberOfTokens",
          "type": "uint8"
        }
      ],
      "name": "mintAllowList",
      "outputs": [],
      "stateMutability": "payable",
      "type": "function"
    },
    {
      "inputs": [],
      "name": "name",
      "outputs": [
        {
          "internalType": "string",
          "name": "",
          "type": "string"
        }
      ],
      "stateMutability": "view",
      "type": "function"
    },
    {
      "inputs": [
        {
          "internalType": "address",
          "name": "addr",
          "type": "address"
        }
      ],
      "name": "numAvailableToMint",
      "outputs": [
        {
          "internalType": "uint8",
          "name": "",
          "type": "uint8"
        }
      ],
      "stateMutability": "view",
      "type": "function"
    },
    {
      "inputs": [],
      "name": "owner",
      "outputs": [
        {
          "internalType": "address",
          "name": "",
          "type": "address"
        }
      ],
      "stateMutability": "view",
      "type": "function"
    },
    {
      "inputs": [
        {
          "internalType": "uint256",
          "name": "tokenId",
          "type": "uint256"
        }
      ],
      "name": "ownerOf",
      "outputs": [
        {
          "internalType": "address",
          "name": "",
          "type": "address"
        }
      ],
      "stateMutability": "view",
      "type": "function"
    },
    {
      "inputs": [],
      "name": "renounceOwnership",
      "outputs": [],
      "stateMutability": "nonpayable",
      "type": "function"
    },
    {
      "inputs": [
        {
          "internalType": "uint256",
          "name": "n",
          "type": "uint256"
        }
      ],
      "name": "reserve",
      "outputs": [],
      "stateMutability": "nonpayable",
      "type": "function"
    },
    {
      "inputs": [
        {
          "internalType": "address",
          "name": "from",
          "type": "address"
        },
        {
          "internalType": "address",
          "name": "to",
          "type": "address"
        },
        {
          "internalType": "uint256",
          "name": "tokenId",
          "type": "uint256"
        }
      ],
      "name": "safeTransferFrom",
      "outputs": [],
      "stateMutability": "nonpayable",
      "type": "function"
    },
    {
      "inputs": [
        {
          "internalType": "address",
          "name": "from",
          "type": "address"
        },
        {
          "internalType": "address",
          "name": "to",
          "type": "address"
        },
        {
          "internalType": "uint256",
          "name": "tokenId",
          "type": "uint256"
        },
        {
          "internalType": "bytes",
          "name": "data",
          "type": "bytes"
        }
      ],
      "name": "safeTransferFrom",
      "outputs": [],
      "stateMutability": "nonpayable",
      "type": "function"
    },
    {
      "inputs": [],
      "name": "saleIsActive",
      "outputs": [
        {
          "internalType": "bool",
          "name": "",
          "type": "bool"
        }
      ],
      "stateMutability": "view",
      "type": "function"
    },
    {
      "inputs": [
        {
          "internalType": "address[]",
          "name": "addresses",
          "type": "address[]"
        },
        {
          "internalType": "uint8",
          "name": "numAllowedToMint",
          "type": "uint8"
        }
      ],
      "name": "setAllowList",
      "outputs": [],
      "stateMutability": "nonpayable",
      "type": "function"
    },
    {
      "inputs": [
        {
          "internalType": "address",
          "name": "operator",
          "type": "address"
        },
        {
          "internalType": "bool",
          "name": "approved",
          "type": "bool"
        }
      ],
      "name": "setApprovalForAll",
      "outputs": [],
      "stateMutability": "nonpayable",
      "type": "function"
    },
    {
      "inputs": [
        {
          "internalType": "string",
          "name": "baseURI_",
          "type": "string"
        }
      ],
      "name": "setBaseURI",
      "outputs": [],
      "stateMutability": "nonpayable",
      "type": "function"
    },
    {
      "inputs": [
        {
          "internalType": "bool",
          "name": "_isAllowListActive",
          "type": "bool"
        }
      ],
      "name": "setIsAllowListActive",
      "outputs": [],
      "stateMutability": "nonpayable",
      "type": "function"
    },
    {
      "inputs": [
        {
          "internalType": "string",
          "name": "provenance",
          "type": "string"
        }
      ],
      "name": "setProvenance",
      "outputs": [],
      "stateMutability": "nonpayable",
      "type": "function"
    },
    {
      "inputs": [
        {
          "internalType": "bool",
          "name": "newState",
          "type": "bool"
        }
      ],
      "name": "setSaleState",
      "outputs": [],
      "stateMutability": "nonpayable",
      "type": "function"
    },
    {
      "inputs": [
        {
          "internalType": "bytes4",
          "name": "interfaceId",
          "type": "bytes4"
        }
      ],
      "name": "supportsInterface",
      "outputs": [
        {
          "internalType": "bool",
          "name": "",
          "type": "bool"
        }
      ],
      "stateMutability": "view",
      "type": "function"
    },
    {
      "inputs": [],
      "name": "symbol",
      "outputs": [
        {
          "internalType": "string",
          "name": "",
          "type": "string"
        }
      ],
      "stateMutability": "view",
      "type": "function"
    },
    {
      "inputs": [
        {
          "internalType": "uint256",
          "name": "index",
          "type": "uint256"
        }
      ],
      "name": "tokenByIndex",
      "outputs": [
        {
          "internalType": "uint256",
          "name": "",
          "type": "uint256"
        }
      ],
      "stateMutability": "view",
      "type": "function"
    },
    {
      "inputs": [
        {
          "internalType": "address",
          "name": "owner",
          "type": "address"
        },
        {
          "internalType": "uint256",
          "name": "index",
          "type": "uint256"
        }
      ],
      "name": "tokenOfOwnerByIndex",
      "outputs": [
        {
          "internalType": "uint256",
          "name": "",
          "type": "uint256"
        }
      ],
      "stateMutability": "view",
      "type": "function"
    },
    {
      "inputs": [
        {
          "internalType": "uint256",
          "name": "tokenId",
          "type": "uint256"
        }
      ],
      "name": "tokenURI",
      "outputs": [
        {
          "internalType": "string",
          "name": "",
          "type": "string"
        }
      ],
      "stateMutability": "view",
      "type": "function"
    },
    {
      "inputs": [],
      "name": "totalSupply",
      "outputs": [
        {
          "internalType": "uint256",
          "name": "",
          "type": "uint256"
        }
      ],
      "stateMutability": "view",
      "type": "function"
    },
    {
      "inputs": [
        {
          "internalType": "address",
          "name": "from",
          "type": "address"
        },
        {
          "internalType": "address",
          "name": "to",
          "type": "address"
        },
        {
          "internalType": "uint256",
          "name": "tokenId",
          "type": "uint256"
        }
      ],
      "name": "transferFrom",
      "outputs": [],
      "stateMutability": "nonpayable",
      "type": "function"
    },
    {
      "inputs": [
        {
          "internalType": "address",
          "name": "newOwner",
          "type": "address"
        }
      ],
      "name": "transferOwnership",
      "outputs": [],
      "stateMutability": "nonpayable",
      "type": "function"
    },
    {
      "inputs": [],
      "name": "withdraw",
      "outputs": [],
      "stateMutability": "nonpayable",
      "type": "function"
    }
  ],
  "bytecode": "0x60806040526000600c60006101000a81548160ff0219169083151502179055506000600e60006101000a81548160ff0219169083151502179055503480156200004757600080fd5b506040518060400160405280600d81526020017f4d54455243373231546f6b656e000000000000000000000000000000000000008152506040518060400160405280600381526020017f4d545400000000000000000000000000000000000000000000000000000000008152508160009080519060200190620000cc92919062000213565b508060019080519060200190620000e592919062000213565b50505062000108620000fc6200014260201b60201c565b6200014a60201b60201c565b6200013c7fe85770981de54b3091b308a5419969fd2c3bd42120a49010b5af47fddf1fa8be60001b6200021060201b60201c565b62000328565b600033905090565b6000600a60009054906101000a900473ffffffffffffffffffffffffffffffffffffffff16905081600a60006101000a81548173ffffffffffffffffffffffffffffffffffffffff021916908373ffffffffffffffffffffffffffffffffffffffff1602179055508173ffffffffffffffffffffffffffffffffffffffff168173ffffffffffffffffffffffffffffffffffffffff167f8be0079c531659141344cd1fd0a4f28419497f9722a3daafe3b4186f6b6457e060405160405180910390a35050565b50565b8280546200022190620002f2565b90600052602060002090601f01602090048101928262000245576000855562000291565b82601f106200026057805160ff191683800117855562000291565b8280016001018555821562000291579182015b828111156200029057825182559160200191906001019062000273565b5b509050620002a09190620002a4565b5090565b5b80821115620002bf576000816000905550600101620002a5565b5090565b7f4e487b7100000000000000000000000000000000000000000000000000000000600052602260045260246000fd5b600060028204905060018216806200030b57607f821691505b60208210811415620003225762000321620002c3565b5b50919050565b6151bc80620003386000396000f3fe6080604052600436106102045760003560e01c8063715018a611610118578063b88d4fde116100a0578063ddff5b1c1161006f578063ddff5b1c14610758578063e985e9c514610774578063eb8d2444146107b1578063f2fde38b146107dc578063ffe630b51461080557610204565b8063b88d4fde1461068c578063c04a2836146106b5578063c4e37095146106f2578063c87b56dd1461071b57610204565b8063833b9499116100e7578063833b9499146105c65780638da5cb5b146105f157806395d89b411461061c578063a0712d6814610647578063a22cb4651461066357610204565b8063715018a614610534578063718bc4af1461054b578063819b25ba146105745780638295784d1461059d57610204565b806332cb6b0c1161019b57806355f804b31161016a57806355f804b31461043b5780636352211e146104645780636373a6b1146104a157806365f13097146104cc57806370a08231146104f757610204565b806332cb6b0c146103935780633ccfd60b146103be57806342842e0e146103d55780634f6ccce7146103fe57610204565b806318160ddd116101d757806318160ddd146102d757806323b872dd1461030257806329fc6bae1461032b5780632f745c591461035657610204565b806301ffc9a71461020957806306fdde0314610246578063081812fc14610271578063095ea7b3146102ae575b600080fd5b34801561021557600080fd5b50610230600480360381019061022b9190613b01565b61082e565b60405161023d9190613b49565b60405180910390f35b34801561025257600080fd5b5061025b6108c4565b6040516102689190613bfd565b60405180910390f35b34801561027d57600080fd5b5061029860048036038101906102939190613c55565b610956565b6040516102a59190613cc3565b60405180910390f35b3480156102ba57600080fd5b506102d560048036038101906102d09190613d0a565b61099c565b005b3480156102e357600080fd5b506102ec610ab4565b6040516102f99190613d59565b60405180910390f35b34801561030e57600080fd5b5061032960048036038101906103249190613d74565b610ac1565b005b34801561033757600080fd5b50610340610b21565b60405161034d9190613b49565b60405180910390f35b34801561036257600080fd5b5061037d60048036038101906103789190613d0a565b610b34565b60405161038a9190613d59565b60405180910390f35b34801561039f57600080fd5b506103a8610bd9565b6040516103b59190613d59565b60405180910390f35b3480156103ca57600080fd5b506103d3610bdf565b005b3480156103e157600080fd5b506103fc60048036038101906103f79190613d74565b610d12565b005b34801561040a57600080fd5b5061042560048036038101906104209190613c55565b610d32565b6040516104329190613d59565b60405180910390f35b34801561044757600080fd5b50610462600480360381019061045d9190613efc565b610da3565b005b34801561047057600080fd5b5061048b60048036038101906104869190613c55565b610e49565b6040516104989190613cc3565b60405180910390f35b3480156104ad57600080fd5b506104b6610efb565b6040516104c39190613bfd565b60405180910390f35b3480156104d857600080fd5b506104e1610f89565b6040516104ee9190613d59565b60405180910390f35b34801561050357600080fd5b5061051e60048036038101906105199190613f45565b610f8e565b60405161052b9190613d59565b60405180910390f35b34801561054057600080fd5b50610549611046565b005b34801561055757600080fd5b50610572600480360381019061056d9190613f9e565b61105a565b005b34801561058057600080fd5b5061059b60048036038101906105969190613c55565b611103565b005b3480156105a957600080fd5b506105c460048036038101906105bf9190614064565b6112df565b005b3480156105d257600080fd5b506105db611469565b6040516105e89190613d59565b60405180910390f35b3480156105fd57600080fd5b50610606611475565b6040516106139190613cc3565b60405180910390f35b34801561062857600080fd5b5061063161149f565b60405161063e9190613bfd565b60405180910390f35b610661600480360381019061065c9190613c55565b611531565b005b34801561066f57600080fd5b5061068a600480360381019061068591906140c4565b611aa2565b005b34801561069857600080fd5b506106b360048036038101906106ae91906141a5565b611ab8565b005b3480156106c157600080fd5b506106dc60048036038101906106d79190613f45565b611b1a565b6040516106e99190614237565b60405180910390f35b3480156106fe57600080fd5b5061071960048036038101906107149190613f9e565b611bf4565b005b34801561072757600080fd5b50610742600480360381019061073d9190613c55565b611c9d565b60405161074f9190613bfd565b60405180910390f35b610772600480360381019061076d9190614252565b611d05565b005b34801561078057600080fd5b5061079b6004803603810190610796919061427f565b61239b565b6040516107a89190613b49565b60405180910390f35b3480156107bd57600080fd5b506107c661242f565b6040516107d39190613b49565b60405180910390f35b3480156107e857600080fd5b5061080360048036038101906107fe9190613f45565b612442565b005b34801561081157600080fd5b5061082c60048036038101906108279190613efc565b6124c6565b005b600061085c7f73ee86f11287735694874565cf325c46a89087f02a4e61c9364bfa16e9abb29c60001b61256c565b6108887fac2100f6b2bcd4724f42fe1847cfcd1824ab839c68cde8e45967f5e7dab5966a60001b61256c565b6108b47ff11e7e1b3f79d40d39137198fa2b5a9327912cf5db1dfaf8938f0ed1c992711360001b61256c565b6108bd8261256f565b9050919050565b6060600080546108d3906142ee565b80601f01602080910402602001604051908101604052809291908181526020018280546108ff906142ee565b801561094c5780601f106109215761010080835404028352916020019161094c565b820191906000526020600020905b81548152906001019060200180831161092f57829003601f168201915b5050505050905090565b6000610961826125e9565b6004600083815260200190815260200160002060009054906101000a900473ffffffffffffffffffffffffffffffffffffffff169050919050565b60006109a782610e49565b90508073ffffffffffffffffffffffffffffffffffffffff168373ffffffffffffffffffffffffffffffffffffffff161415610a18576040517f08c379a0000000000000000000000000000000000000000000000000000000008152600401610a0f90614392565b60405180910390fd5b8073ffffffffffffffffffffffffffffffffffffffff16610a37612634565b73ffffffffffffffffffffffffffffffffffffffff161480610a665750610a6581610a60612634565b61239b565b5b610aa5576040517f08c379a0000000000000000000000000000000000000000000000000000000008152600401610a9c90614424565b60405180910390fd5b610aaf838361263c565b505050565b6000600880549050905090565b610ad2610acc612634565b826126f5565b610b11576040517f08c379a0000000000000000000000000000000000000000000000000000000008152600401610b08906144b6565b60405180910390fd5b610b1c83838361278a565b505050565b600e60009054906101000a900460ff1681565b6000610b3f83610f8e565b8210610b80576040517f08c379a0000000000000000000000000000000000000000000000000000000008152600401610b7790614548565b60405180910390fd5b600660008473ffffffffffffffffffffffffffffffffffffffff1673ffffffffffffffffffffffffffffffffffffffff168152602001908152602001600020600083815260200190815260200160002054905092915050565b61271081565b610be76129f1565b610c137f3c8cc48bed2f9855a920048dc02ec925f9657fd3f9215ecf4d455bde02fdf49960001b61256c565b610c3f7f1c086c36c625851bb2efe008850233aba4cb76d3198497f4298213e950980c5d60001b61256c565b610c6b7faa163420ebb00af3038266c3d86882aa223db8441d2faa8f4fff9944cd2cc9c860001b61256c565b6000479050610c9c7f022a1069646f90432c23932572fefe3e754e3ef7df82bd2288eab6a655d112ca60001b61256c565b610cc87f59dd9d91beae94579b1754e22f5eab6bf7891a43985357e13e4b5d7c0798c38a60001b61256c565b3373ffffffffffffffffffffffffffffffffffffffff166108fc829081150290604051600060405180830381858888f19350505050158015610d0e573d6000803e3d6000fd5b5050565b610d2d83838360405180602001604052806000815250611ab8565b505050565b6000610d3c610ab4565b8210610d7d576040517f08c379a0000000000000000000000000000000000000000000000000000000008152600401610d74906145da565b60405180910390fd5b60088281548110610d9157610d906145fa565b5b90600052602060002001549050919050565b610dab6129f1565b610dd77f964114e7e28f66408f70ef1f54b9e7916bfcc4bae051cad6207eb4bc9455443f60001b61256c565b610e037f499de52ee99ae0798afdb02a77005631912ad77aa743ac711efb74e79944b1a560001b61256c565b610e2f7fdd821cf4b7a8d792e78ff2e77335c5034e37cc6a8a60fa98af5d44364fe7ad8a60001b61256c565b80600d9080519060200190610e459291906139f2565b5050565b6000806002600084815260200190815260200160002060009054906101000a900473ffffffffffffffffffffffffffffffffffffffff169050600073ffffffffffffffffffffffffffffffffffffffff168173ffffffffffffffffffffffffffffffffffffffff161415610ef2576040517f08c379a0000000000000000000000000000000000000000000000000000000008152600401610ee990614675565b60405180910390fd5b80915050919050565b600b8054610f08906142ee565b80601f0160208091040260200160405190810160405280929190818152602001828054610f34906142ee565b8015610f815780601f10610f5657610100808354040283529160200191610f81565b820191906000526020600020905b815481529060010190602001808311610f6457829003601f168201915b505050505081565b600581565b60008073ffffffffffffffffffffffffffffffffffffffff168273ffffffffffffffffffffffffffffffffffffffff161415610fff576040517f08c379a0000000000000000000000000000000000000000000000000000000008152600401610ff690614707565b60405180910390fd5b600360008373ffffffffffffffffffffffffffffffffffffffff1673ffffffffffffffffffffffffffffffffffffffff168152602001908152602001600020549050919050565b61104e6129f1565b6110586000612a6f565b565b6110626129f1565b61108e7f0a0d797713149334e678756d4fd96bb2300dc48d639a3e5b79a7615a5439976b60001b61256c565b6110ba7f55e9c0a95ab5aa8351ec49427ac2e9a0e236ed1400c05c879c58a8e0d91acef960001b61256c565b6110e67f9ef91bb2c795a0b4c4a1f48b1fd594af82459ddf2ca5425777295048fe245d9260001b61256c565b80600e60006101000a81548160ff02191690831515021790555050565b61110b6129f1565b6111377f9838e41d5c095f400631e911f44461388144c4b297d1f057360d714e441d39d060001b61256c565b6111637f29506545c2f96bab4ce440d02bd2a54ebf8d5272a8190c968167a31d3001e4ee60001b61256c565b61118f7f236ad1222382790ec892bcab1b8fde1ad02927d1f24deed38a38322aeb8485cc60001b61256c565b6000611199610ab4565b90506111c77f9c668bfd3815b68332eea8d38761529dd59a48dfc9bb8ef237bd6a5c5e4f5ae760001b61256c565b6111f37f948a16b8f7982516b21b8193914a6fabf2147f4d8ebd8e7b26c989f41ef382ec60001b61256c565b60006112217fffa6101b95a95cb38f9a04575dbaa2bb4bedeaeafe443bad10f4ae3630fb1d0e60001b61256c565b61124d7fff3038a7c85bb70e302dcd6e44924aead657456533b512f5787cd291456e72cf60001b61256c565b600090505b828110156112da576112867f1037ba9c24767e49cce3d133523033ff58c5eb009cc169a4309a2c9b99f1336460001b61256c565b6112b27f0659bd0bc8f3adc5dce7ff69b486010338402ce63ea2ed689ec9f785997afd2260001b61256c565b6112c73382846112c29190614756565b612b35565b80806112d2906147ac565b915050611252565b505050565b6112e76129f1565b6113137fe562388f34fd12b782a29c691c46a2172498d4cb759867645a9e331479e679f260001b61256c565b61133f7fc17aaa7c1d0065c94efe4c1cb01bed07eddfb0016cb1f8247b508c2b844e0bb860001b61256c565b61136b7f09d325bf8c0bb21bef3b1a52606cf7ac89edf6eae514413b97b655564e31d10160001b61256c565b60005b83839050811015611463576113a57fe7646061386a8e10c5cb9a0825dc82be247c97d6b31dba49e04789372a85daaa60001b61256c565b6113d17ff2956b5bd538197c424666e9553c9a705cad3995d90e41288d4e08019c2c24cd60001b61256c565b81600f60008686858181106113e9576113e86145fa565b5b90506020020160208101906113fe9190613f45565b73ffffffffffffffffffffffffffffffffffffffff1673ffffffffffffffffffffffffffffffffffffffff16815260200190815260200160002060006101000a81548160ff021916908360ff160217905550808061145b906147ac565b91505061136e565b50505050565b6701b4fbd92b5f800081565b6000600a60009054906101000a900473ffffffffffffffffffffffffffffffffffffffff16905090565b6060600180546114ae906142ee565b80601f01602080910402602001604051908101604052809291908181526020018280546114da906142ee565b80156115275780601f106114fc57610100808354040283529160200191611527565b820191906000526020600020905b81548152906001019060200180831161150a57829003601f168201915b5050505050905090565b61155d7fc66fc229f771d32c9f75d5216e01bbc21f64618a329597c59d5af80a62e403e360001b61256c565b6115897f9b9b71198a25ea9c5312525863024fbc4959a91a2818fa0aed2e1c93eebf635b60001b61256c565b6115b57fac238a737513d8de2a7058088898a0c3845fa22f8123a154d9ca4087473c251d60001b61256c565b60006115bf610ab4565b90506115ed7f69bd499e4d0c09110a58f7e65d9c5e7db944d0093d8d086d16b51ec349f7e83d60001b61256c565b6116197f63036211607abd5dd160557ec8d3ed93e531b1ec3d76a4be2ecafb184c89ed5a60001b61256c565b6116457f5abcd7220a51e9375c2d27374e474a3598f19b26d6e4678dd39c0fc5fd6cd0f260001b61256c565b600c60009054906101000a900460ff16611694576040517f08c379a000000000000000000000000000000000000000000000000000000000815260040161168b90614867565b60405180910390fd5b6116c07f859d8d4bad33610f7262a4e843cbc9f7b6981586806a3bf9d2e01a42d768ce9b60001b61256c565b6116ec7ffc7c7a20e4a8d96d8587dbdf02f555e447171d8d33f904d200a9e424bd01c90260001b61256c565b6117187fed7bb7d75c80d0e271e4ac092a04655efc39d595ad394f23b0100fd60c27391b60001b61256c565b6117447f82c4a6f34e2d4af431defc1e6d722bcf607bece5c623b133270823924b52bcee60001b61256c565b6005821115611788576040517f08c379a000000000000000000000000000000000000000000000000000000000815260040161177f906148d3565b60405180910390fd5b6117b47f2a14b582219065e06ada9478e7e308991b55cfde4bb1686c9207938606de072260001b61256c565b6117e07fd03209ae9c597b58f87b95ca7cfe56d917ea29c9cfce3e336c178f8f8268ad8e60001b61256c565b61180c7faf601467b51709c1788035c91bf7d9ccaa80345b1798df792ef147b013dca17d60001b61256c565b6118387f95dcf6a72ad9e6fa7a868fa869b852ce94e37a27066e2c9e9e71dcfb4b75379160001b61256c565b61271082826118479190614756565b1115611888576040517f08c379a000000000000000000000000000000000000000000000000000000000815260040161187f9061493f565b60405180910390fd5b6118b47fe787e55200fac72cf07bcfbe1d602f652843cd330ee23d8b868ce2297555202d60001b61256c565b6118e07f1bb7e2f2e440c1b4aa2e6035afd30a954afea9ab4a08e74abc286e584d0173c160001b61256c565b61190c7f679f197d78fb5632b477c79eb54e3e64e6d7f861093a32b788a9710e65462add60001b61256c565b6119387f34ee45b219fe6083cafa5d41927027366d501c3f5df3d937379b88d437eb550560001b61256c565b34826701b4fbd92b5f800061194d919061495f565b111561198e576040517f08c379a000000000000000000000000000000000000000000000000000000000815260040161198590614a05565b60405180910390fd5b6119ba7fefbb1e4584f45e321d9f02b7e6eb8bb630aa87cebaf8714298ededab1e5a648f60001b61256c565b6119e67f779dce721214c76faf363e768efbb503bec43ee79662ac632946222f50107c8b60001b61256c565b611a127f62f9a8ffc3998c759298a3621cfad20a100bfbccd32c275ba283032c4f25286a60001b61256c565b60005b82811015611a9d57611a497f8cd7287da6044e41fda16d131053ad0c848833cfbe2d4a45b3ee0674bd2a9d6960001b61256c565b611a757fd42150b42422144f8025539b6307aabe78b21c69b2295610fd27ff7b63afad3e60001b61256c565b611a8a338284611a859190614756565b612b35565b8080611a95906147ac565b915050611a15565b505050565b611ab4611aad612634565b8383612b53565b5050565b611ac9611ac3612634565b836126f5565b611b08576040517f08c379a0000000000000000000000000000000000000000000000000000000008152600401611aff906144b6565b60405180910390fd5b611b1484848484612cc0565b50505050565b6000611b487ff3ffdfeae795c08c9f672a372b4e7cf458efb585402c02fcec3c6df96a8b4e8060001b61256c565b611b747fbbf253d2613221eff5681a034b1aee3621da1792e545af316173871d376556a060001b61256c565b611ba07f584c9021659f89968a17f2aa47e535486a3ff5bec8d3a331beec027297f5876a60001b61256c565b600f60008373ffffffffffffffffffffffffffffffffffffffff1673ffffffffffffffffffffffffffffffffffffffff16815260200190815260200160002060009054906101000a900460ff169050919050565b611bfc6129f1565b611c287f361b38eb2d40405aa243e3f421ea43c1ad81d4dbb432bb3ff24e491c6cf8a44b60001b61256c565b611c547f78e197bcd91f1fab8835d93a335c5fb0e870c41eedc625346abddf8a694d8c1d60001b61256c565b611c807f3325ae7290335740acfdfee9d0f3b3ad4d7c56746702dead835eb9924044d4e960001b61256c565b80600c60006101000a81548160ff02191690831515021790555050565b6060611ca8826125e9565b6000611cb2612d1c565b90506000815111611cd25760405180602001604052806000815250611cfd565b80611cdc84612e32565b604051602001611ced929190614a61565b6040516020818303038152906040525b915050919050565b611d317f8f1cc1a715551e757b412ab48a9201f328de8e01ef2d959d8b148dc3b81a881060001b61256c565b611d5d7f2a08e886ad7e48a9372c4e797ac9672ff264ca4e3d3f19d85782d6281dc0b48f60001b61256c565b611d897f60b59b3ea0b3343d3b40eb47f1e3e37333431697070bf40ac12660b1a4c88e1560001b61256c565b6000611d93610ab4565b9050611dc17f8995546ac65594c848869cd7c5b93d026730a39ad7523a3099bb6ee586fcbcc660001b61256c565b611ded7f666aadf53bde60282ec32daae995da80786d5eb1dbfad602ed0531609dffb19a60001b61256c565b611e197feb252189c8eb2d9ef033433560d7a9bd8132fa79dd1d38815cf75c033b681fb660001b61256c565b600e60009054906101000a900460ff16611e68576040517f08c379a0000000000000000000000000000000000000000000000000000000008152600401611e5f90614ad1565b60405180910390fd5b611e947f3c7af6eabca441f42253c1075d151c648f48181e3c57461de7b7af737d4d061e60001b61256c565b611ec07fecfb5a07d175fa65485190ff1a63a65e555fa8bd9e1481636bc00b10a0023f4c60001b61256c565b611eec7f1d5e0c41b89dedd14588532ee01c572ea6b416787d8a45b9592f0b70b3d8dda660001b61256c565b611f187f45e9faeff8b22bf19ea75a719eb48b50d6eca291eeb5419321a1deb977c0773f60001b61256c565b600f60003373ffffffffffffffffffffffffffffffffffffffff1673ffffffffffffffffffffffffffffffffffffffff16815260200190815260200160002060009054906101000a900460ff1660ff168260ff161115611fad576040517f08c379a0000000000000000000000000000000000000000000000000000000008152600401611fa490614b63565b60405180910390fd5b611fd97f3dd1aeddb265cdc2e7e50dd19f17f2d0e4bd1d9cad74a4cd077daa6ee158177260001b61256c565b6120057fa1783e9636a9e11367b7fc28bd0029730befd8ca712541e2d3c333b1f81148e260001b61256c565b6120317f30c7728121756c4937e5d63891cfa92bb42d6674634d8741017b335038c998da60001b61256c565b61205d7fd7cc924b86ce16cf47d3571d80760eaa1d64525ecf0448450921aca3be1dacfe60001b61256c565b6127108260ff168261206f9190614756565b11156120b0576040517f08c379a00000000000000000000000000000000000000000000000000000000081526004016120a79061493f565b60405180910390fd5b6120dc7f1f91bfcff86b412926a5b30bd6f8b509d9d04dd8df4256900759e2fa70f2ded160001b61256c565b6121087fb3b61cda06ddb707084a68604e0d8f6a77299add4e4eab957623ed2dc609364060001b61256c565b6121347f2e92a93fb8d28d0bfc9f0180a19dc9283a6f4c281742fa420b146a4d94482f8860001b61256c565b6121607f8d36721492673ef783286430bceb0888f1662eb179109b593e932a8435d385cf60001b61256c565b348260ff166701b4fbd92b5f8000612178919061495f565b11156121b9576040517f08c379a00000000000000000000000000000000000000000000000000000000081526004016121b090614a05565b60405180910390fd5b6121e57f4b23936aff9893e27500765620f6cd12b9830893a3782c971aeec2124794c63760001b61256c565b6122117fa5d95ef1525c2d1410c0d73e3a778950d5ed7c166db99776c9fc1ea29bfbea2160001b61256c565b61223d7fa0982feda93401f00e85cfd61c0fbc7bb93be8b0dcabec317b1130fb1eaff93160001b61256c565b81600f60003373ffffffffffffffffffffffffffffffffffffffff1673ffffffffffffffffffffffffffffffffffffffff16815260200190815260200160002060008282829054906101000a900460ff166122989190614b83565b92506101000a81548160ff021916908360ff1602179055506122dc7f74d79e379deed4e5392e157cf5320007c174c94ea438b82f07b79fac06364c3260001b61256c565b6123087fcd207fe14661b97fc9a8ddfd102a3b3869e6152c0ed9be1c9bc93a9d634c603560001b61256c565b60005b8260ff16811015612396576123427fcd19d7df338552fac189ff2b2d06782784a603ec5a26e39851472ca859c10f8b60001b61256c565b61236e7f3c1952174b8526a8d3f25e4fe67bb870f79972d7099e61e47b761e163c0caa2d60001b61256c565b61238333828461237e9190614756565b612b35565b808061238e906147ac565b91505061230b565b505050565b6000600560008473ffffffffffffffffffffffffffffffffffffffff1673ffffffffffffffffffffffffffffffffffffffff16815260200190815260200160002060008373ffffffffffffffffffffffffffffffffffffffff1673ffffffffffffffffffffffffffffffffffffffff16815260200190815260200160002060009054906101000a900460ff16905092915050565b600c60009054906101000a900460ff1681565b61244a6129f1565b600073ffffffffffffffffffffffffffffffffffffffff168173ffffffffffffffffffffffffffffffffffffffff1614156124ba576040517f08c379a00000000000000000000000000000000000000000000000000000000081526004016124b190614c29565b60405180910390fd5b6124c381612a6f565b50565b6124ce6129f1565b6124fa7fbd485d955a96b157caf07a72f20318a5502dae0df0f480438bf719b4aa75980660001b61256c565b6125267fb3775a90687deddb59eab68a0a4c1298621033e8c7cc66c2e3da0f249e4b135860001b61256c565b6125527fe924b4f5586c2879d656ac2697c4b6b95a11959622e7074ebbb66fe76dc6a84960001b61256c565b80600b90805190602001906125689291906139f2565b5050565b50565b60007f780e9d63000000000000000000000000000000000000000000000000000000007bffffffffffffffffffffffffffffffffffffffffffffffffffffffff1916827bffffffffffffffffffffffffffffffffffffffffffffffffffffffff191614806125e257506125e182612f93565b5b9050919050565b6125f281613075565b612631576040517f08c379a000000000000000000000000000000000000000000000000000000000815260040161262890614675565b60405180910390fd5b50565b600033905090565b816004600083815260200190815260200160002060006101000a81548173ffffffffffffffffffffffffffffffffffffffff021916908373ffffffffffffffffffffffffffffffffffffffff160217905550808273ffffffffffffffffffffffffffffffffffffffff166126af83610e49565b73ffffffffffffffffffffffffffffffffffffffff167f8c5be1e5ebec7d5bd14f71427d1e84f3dd0314c0f7b2291e5b200ac8c7c3b92560405160405180910390a45050565b60008061270183610e49565b90508073ffffffffffffffffffffffffffffffffffffffff168473ffffffffffffffffffffffffffffffffffffffff1614806127435750612742818561239b565b5b8061278157508373ffffffffffffffffffffffffffffffffffffffff1661276984610956565b73ffffffffffffffffffffffffffffffffffffffff16145b91505092915050565b8273ffffffffffffffffffffffffffffffffffffffff166127aa82610e49565b73ffffffffffffffffffffffffffffffffffffffff1614612800576040517f08c379a00000000000000000000000000000000000000000000000000000000081526004016127f790614cbb565b60405180910390fd5b600073ffffffffffffffffffffffffffffffffffffffff168273ffffffffffffffffffffffffffffffffffffffff161415612870576040517f08c379a000000000000000000000000000000000000000000000000000000000815260040161286790614d4d565b60405180910390fd5b61287b8383836130e1565b61288660008261263c565b6001600360008573ffffffffffffffffffffffffffffffffffffffff1673ffffffffffffffffffffffffffffffffffffffff16815260200190815260200160002060008282546128d69190614d6d565b925050819055506001600360008473ffffffffffffffffffffffffffffffffffffffff1673ffffffffffffffffffffffffffffffffffffffff168152602001908152602001600020600082825461292d9190614756565b92505081905550816002600083815260200190815260200160002060006101000a81548173ffffffffffffffffffffffffffffffffffffffff021916908373ffffffffffffffffffffffffffffffffffffffff160217905550808273ffffffffffffffffffffffffffffffffffffffff168473ffffffffffffffffffffffffffffffffffffffff167fddf252ad1be2c89b69c2b068fc378daa952ba7f163c4a11628f55a4df523b3ef60405160405180910390a46129ec838383613175565b505050565b6129f9612634565b73ffffffffffffffffffffffffffffffffffffffff16612a17611475565b73ffffffffffffffffffffffffffffffffffffffff1614612a6d576040517f08c379a0000000000000000000000000000000000000000000000000000000008152600401612a6490614ded565b60405180910390fd5b565b6000600a60009054906101000a900473ffffffffffffffffffffffffffffffffffffffff16905081600a60006101000a81548173ffffffffffffffffffffffffffffffffffffffff021916908373ffffffffffffffffffffffffffffffffffffffff1602179055508173ffffffffffffffffffffffffffffffffffffffff168173ffffffffffffffffffffffffffffffffffffffff167f8be0079c531659141344cd1fd0a4f28419497f9722a3daafe3b4186f6b6457e060405160405180910390a35050565b612b4f82826040518060200160405280600081525061317a565b5050565b8173ffffffffffffffffffffffffffffffffffffffff168373ffffffffffffffffffffffffffffffffffffffff161415612bc2576040517f08c379a0000000000000000000000000000000000000000000000000000000008152600401612bb990614e59565b60405180910390fd5b80600560008573ffffffffffffffffffffffffffffffffffffffff1673ffffffffffffffffffffffffffffffffffffffff16815260200190815260200160002060008473ffffffffffffffffffffffffffffffffffffffff1673ffffffffffffffffffffffffffffffffffffffff16815260200190815260200160002060006101000a81548160ff0219169083151502179055508173ffffffffffffffffffffffffffffffffffffffff168373ffffffffffffffffffffffffffffffffffffffff167f17307eab39ab6107e8899845ad3d59bd9653f200f220920489ca2b5937696c3183604051612cb39190613b49565b60405180910390a3505050565b612ccb84848461278a565b612cd7848484846131d5565b612d16576040517f08c379a0000000000000000000000000000000000000000000000000000000008152600401612d0d90614eeb565b60405180910390fd5b50505050565b6060612d4a7f6f4109ea066eabb23a2d20929b0ee2a0499919a051af7ffb952eba6711bdbb3a60001b61256c565b612d767f363c1960abb08891bfedc4750baa74461a387e4b031bc1ca95e82fe5d8e8c0ef60001b61256c565b612da27fc601899bc80fdcbe1b994b7ddb00eab5d279a63eb1c00c58cf2ccfa06a9f8bcd60001b61256c565b600d8054612daf906142ee565b80601f0160208091040260200160405190810160405280929190818152602001828054612ddb906142ee565b8015612e285780601f10612dfd57610100808354040283529160200191612e28565b820191906000526020600020905b815481529060010190602001808311612e0b57829003601f168201915b5050505050905090565b60606000821415612e7a576040518060400160405280600181526020017f30000000000000000000000000000000000000000000000000000000000000008152509050612f8e565b600082905060005b60008214612eac578080612e95906147ac565b915050600a82612ea59190614f3a565b9150612e82565b60008167ffffffffffffffff811115612ec857612ec7613dd1565b5b6040519080825280601f01601f191660200182016040528015612efa5781602001600182028036833780820191505090505b5090505b60008514612f8757600182612f139190614d6d565b9150600a85612f229190614f6b565b6030612f2e9190614756565b60f81b818381518110612f4457612f436145fa565b5b60200101907effffffffffffffffffffffffffffffffffffffffffffffffffffffffffffff1916908160001a905350600a85612f809190614f3a565b9450612efe565b8093505050505b919050565b60007f80ac58cd000000000000000000000000000000000000000000000000000000007bffffffffffffffffffffffffffffffffffffffffffffffffffffffff1916827bffffffffffffffffffffffffffffffffffffffffffffffffffffffff1916148061305e57507f5b5e139f000000000000000000000000000000000000000000000000000000007bffffffffffffffffffffffffffffffffffffffffffffffffffffffff1916827bffffffffffffffffffffffffffffffffffffffffffffffffffffffff1916145b8061306e575061306d8261336c565b5b9050919050565b60008073ffffffffffffffffffffffffffffffffffffffff166002600084815260200190815260200160002060009054906101000a900473ffffffffffffffffffffffffffffffffffffffff1673ffffffffffffffffffffffffffffffffffffffff1614159050919050565b61310d7ff0a4e0b9d340b60724c65d6cde865ad4f659ef8dd3e7aecb5a9efab127765bdf60001b61256c565b6131397feb080942fb987d6bd73d0fe87159709de93ed0e431824188f66d351efc654ab860001b61256c565b6131657f9c16b057fc246d504bcd01aeb998afa425d178f362083604287b8484a7d710af60001b61256c565b6131708383836133d6565b505050565b505050565b61318483836134ea565b61319160008484846131d5565b6131d0576040517f08c379a00000000000000000000000000000000000000000000000000000000081526004016131c790614eeb565b60405180910390fd5b505050565b60006131f68473ffffffffffffffffffffffffffffffffffffffff166136c4565b1561335f578373ffffffffffffffffffffffffffffffffffffffff1663150b7a0261321f612634565b8786866040518563ffffffff1660e01b81526004016132419493929190614ff1565b602060405180830381600087803b15801561325b57600080fd5b505af192505050801561328c57506040513d601f19601f820116820180604052508101906132899190615052565b60015b61330f573d80600081146132bc576040519150601f19603f3d011682016040523d82523d6000602084013e6132c1565b606091505b50600081511415613307576040517f08c379a00000000000000000000000000000000000000000000000000000000081526004016132fe90614eeb565b60405180910390fd5b805181602001fd5b63150b7a0260e01b7bffffffffffffffffffffffffffffffffffffffffffffffffffffffff1916817bffffffffffffffffffffffffffffffffffffffffffffffffffffffff191614915050613364565b600190505b949350505050565b60007f01ffc9a7000000000000000000000000000000000000000000000000000000007bffffffffffffffffffffffffffffffffffffffffffffffffffffffff1916827bffffffffffffffffffffffffffffffffffffffffffffffffffffffff1916149050919050565b6133e18383836136e7565b600073ffffffffffffffffffffffffffffffffffffffff168373ffffffffffffffffffffffffffffffffffffffff1614156134245761341f816136ec565b613463565b8173ffffffffffffffffffffffffffffffffffffffff168373ffffffffffffffffffffffffffffffffffffffff1614613462576134618382613735565b5b5b600073ffffffffffffffffffffffffffffffffffffffff168273ffffffffffffffffffffffffffffffffffffffff1614156134a6576134a1816138a2565b6134e5565b8273ffffffffffffffffffffffffffffffffffffffff168273ffffffffffffffffffffffffffffffffffffffff16146134e4576134e38282613973565b5b5b505050565b600073ffffffffffffffffffffffffffffffffffffffff168273ffffffffffffffffffffffffffffffffffffffff16141561355a576040517f08c379a0000000000000000000000000000000000000000000000000000000008152600401613551906150cb565b60405180910390fd5b61356381613075565b156135a3576040517f08c379a000000000000000000000000000000000000000000000000000000000815260040161359a90615137565b60405180910390fd5b6135af600083836130e1565b6001600360008473ffffffffffffffffffffffffffffffffffffffff1673ffffffffffffffffffffffffffffffffffffffff16815260200190815260200160002060008282546135ff9190614756565b92505081905550816002600083815260200190815260200160002060006101000a81548173ffffffffffffffffffffffffffffffffffffffff021916908373ffffffffffffffffffffffffffffffffffffffff160217905550808273ffffffffffffffffffffffffffffffffffffffff16600073ffffffffffffffffffffffffffffffffffffffff167fddf252ad1be2c89b69c2b068fc378daa952ba7f163c4a11628f55a4df523b3ef60405160405180910390a46136c060008383613175565b5050565b6000808273ffffffffffffffffffffffffffffffffffffffff163b119050919050565b505050565b6008805490506009600083815260200190815260200160002081905550600881908060018154018082558091505060019003906000526020600020016000909190919091505550565b6000600161374284610f8e565b61374c9190614d6d565b9050600060076000848152602001908152602001600020549050818114613831576000600660008673ffffffffffffffffffffffffffffffffffffffff1673ffffffffffffffffffffffffffffffffffffffff168152602001908152602001600020600084815260200190815260200160002054905080600660008773ffffffffffffffffffffffffffffffffffffffff1673ffffffffffffffffffffffffffffffffffffffff168152602001908152602001600020600084815260200190815260200160002081905550816007600083815260200190815260200160002081905550505b6007600084815260200190815260200160002060009055600660008573ffffffffffffffffffffffffffffffffffffffff1673ffffffffffffffffffffffffffffffffffffffff16815260200190815260200160002060008381526020019081526020016000206000905550505050565b600060016008805490506138b69190614d6d565b90506000600960008481526020019081526020016000205490506000600883815481106138e6576138e56145fa565b5b906000526020600020015490508060088381548110613908576139076145fa565b5b90600052602060002001819055508160096000838152602001908152602001600020819055506009600085815260200190815260200160002060009055600880548061395757613956615157565b5b6001900381819060005260206000200160009055905550505050565b600061397e83610f8e565b905081600660008573ffffffffffffffffffffffffffffffffffffffff1673ffffffffffffffffffffffffffffffffffffffff168152602001908152602001600020600083815260200190815260200160002081905550806007600084815260200190815260200160002081905550505050565b8280546139fe906142ee565b90600052602060002090601f016020900481019282613a205760008555613a67565b82601f10613a3957805160ff1916838001178555613a67565b82800160010185558215613a67579182015b82811115613a66578251825591602001919060010190613a4b565b5b509050613a749190613a78565b5090565b5b80821115613a91576000816000905550600101613a79565b5090565b6000604051905090565b600080fd5b600080fd5b60007fffffffff0000000000000000000000000000000000000000000000000000000082169050919050565b613ade81613aa9565b8114613ae957600080fd5b50565b600081359050613afb81613ad5565b92915050565b600060208284031215613b1757613b16613a9f565b5b6000613b2584828501613aec565b91505092915050565b60008115159050919050565b613b4381613b2e565b82525050565b6000602082019050613b5e6000830184613b3a565b92915050565b600081519050919050565b600082825260208201905092915050565b60005b83811015613b9e578082015181840152602081019050613b83565b83811115613bad576000848401525b50505050565b6000601f19601f8301169050919050565b6000613bcf82613b64565b613bd98185613b6f565b9350613be9818560208601613b80565b613bf281613bb3565b840191505092915050565b60006020820190508181036000830152613c178184613bc4565b905092915050565b6000819050919050565b613c3281613c1f565b8114613c3d57600080fd5b50565b600081359050613c4f81613c29565b92915050565b600060208284031215613c6b57613c6a613a9f565b5b6000613c7984828501613c40565b91505092915050565b600073ffffffffffffffffffffffffffffffffffffffff82169050919050565b6000613cad82613c82565b9050919050565b613cbd81613ca2565b82525050565b6000602082019050613cd86000830184613cb4565b92915050565b613ce781613ca2565b8114613cf257600080fd5b50565b600081359050613d0481613cde565b92915050565b60008060408385031215613d2157613d20613a9f565b5b6000613d2f85828601613cf5565b9250506020613d4085828601613c40565b9150509250929050565b613d5381613c1f565b82525050565b6000602082019050613d6e6000830184613d4a565b92915050565b600080600060608486031215613d8d57613d8c613a9f565b5b6000613d9b86828701613cf5565b9350506020613dac86828701613cf5565b9250506040613dbd86828701613c40565b9150509250925092565b600080fd5b600080fd5b7f4e487b7100000000000000000000000000000000000000000000000000000000600052604160045260246000fd5b613e0982613bb3565b810181811067ffffffffffffffff82111715613e2857613e27613dd1565b5b80604052505050565b6000613e3b613a95565b9050613e478282613e00565b919050565b600067ffffffffffffffff821115613e6757613e66613dd1565b5b613e7082613bb3565b9050602081019050919050565b82818337600083830152505050565b6000613e9f613e9a84613e4c565b613e31565b905082815260208101848484011115613ebb57613eba613dcc565b5b613ec6848285613e7d565b509392505050565b600082601f830112613ee357613ee2613dc7565b5b8135613ef3848260208601613e8c565b91505092915050565b600060208284031215613f1257613f11613a9f565b5b600082013567ffffffffffffffff811115613f3057613f2f613aa4565b5b613f3c84828501613ece565b91505092915050565b600060208284031215613f5b57613f5a613a9f565b5b6000613f6984828501613cf5565b91505092915050565b613f7b81613b2e565b8114613f8657600080fd5b50565b600081359050613f9881613f72565b92915050565b600060208284031215613fb457613fb3613a9f565b5b6000613fc284828501613f89565b91505092915050565b600080fd5b600080fd5b60008083601f840112613feb57613fea613dc7565b5b8235905067ffffffffffffffff81111561400857614007613fcb565b5b60208301915083602082028301111561402457614023613fd0565b5b9250929050565b600060ff82169050919050565b6140418161402b565b811461404c57600080fd5b50565b60008135905061405e81614038565b92915050565b60008060006040848603121561407d5761407c613a9f565b5b600084013567ffffffffffffffff81111561409b5761409a613aa4565b5b6140a786828701613fd5565b935093505060206140ba8682870161404f565b9150509250925092565b600080604083850312156140db576140da613a9f565b5b60006140e985828601613cf5565b92505060206140fa85828601613f89565b9150509250929050565b600067ffffffffffffffff82111561411f5761411e613dd1565b5b61412882613bb3565b9050602081019050919050565b600061414861414384614104565b613e31565b90508281526020810184848401111561416457614163613dcc565b5b61416f848285613e7d565b509392505050565b600082601f83011261418c5761418b613dc7565b5b813561419c848260208601614135565b91505092915050565b600080600080608085870312156141bf576141be613a9f565b5b60006141cd87828801613cf5565b94505060206141de87828801613cf5565b93505060406141ef87828801613c40565b925050606085013567ffffffffffffffff8111156142105761420f613aa4565b5b61421c87828801614177565b91505092959194509250565b6142318161402b565b82525050565b600060208201905061424c6000830184614228565b92915050565b60006020828403121561426857614267613a9f565b5b60006142768482850161404f565b91505092915050565b6000806040838503121561429657614295613a9f565b5b60006142a485828601613cf5565b92505060206142b585828601613cf5565b9150509250929050565b7f4e487b7100000000000000000000000000000000000000000000000000000000600052602260045260246000fd5b6000600282049050600182168061430657607f821691505b6020821081141561431a576143196142bf565b5b50919050565b7f4552433732313a20617070726f76616c20746f2063757272656e74206f776e6560008201527f7200000000000000000000000000000000000000000000000000000000000000602082015250565b600061437c602183613b6f565b915061438782614320565b604082019050919050565b600060208201905081810360008301526143ab8161436f565b9050919050565b7f4552433732313a20617070726f76652063616c6c6572206973206e6f7420746f60008201527f6b656e206f776e6572206e6f7220617070726f76656420666f7220616c6c0000602082015250565b600061440e603e83613b6f565b9150614419826143b2565b604082019050919050565b6000602082019050818103600083015261443d81614401565b9050919050565b7f4552433732313a2063616c6c6572206973206e6f7420746f6b656e206f776e6560008201527f72206e6f7220617070726f766564000000000000000000000000000000000000602082015250565b60006144a0602e83613b6f565b91506144ab82614444565b604082019050919050565b600060208201905081810360008301526144cf81614493565b9050919050565b7f455243373231456e756d657261626c653a206f776e657220696e646578206f7560008201527f74206f6620626f756e6473000000000000000000000000000000000000000000602082015250565b6000614532602b83613b6f565b915061453d826144d6565b604082019050919050565b6000602082019050818103600083015261456181614525565b9050919050565b7f455243373231456e756d657261626c653a20676c6f62616c20696e646578206f60008201527f7574206f6620626f756e64730000000000000000000000000000000000000000602082015250565b60006145c4602c83613b6f565b91506145cf82614568565b604082019050919050565b600060208201905081810360008301526145f3816145b7565b9050919050565b7f4e487b7100000000000000000000000000000000000000000000000000000000600052603260045260246000fd5b7f4552433732313a20696e76616c696420746f6b656e2049440000000000000000600082015250565b600061465f601883613b6f565b915061466a82614629565b602082019050919050565b6000602082019050818103600083015261468e81614652565b9050919050565b7f4552433732313a2061646472657373207a65726f206973206e6f74206120766160008201527f6c6964206f776e65720000000000000000000000000000000000000000000000602082015250565b60006146f1602983613b6f565b91506146fc82614695565b604082019050919050565b60006020820190508181036000830152614720816146e4565b9050919050565b7f4e487b7100000000000000000000000000000000000000000000000000000000600052601160045260246000fd5b600061476182613c1f565b915061476c83613c1f565b9250827fffffffffffffffffffffffffffffffffffffffffffffffffffffffffffffffff038211156147a1576147a0614727565b5b828201905092915050565b60006147b782613c1f565b91507fffffffffffffffffffffffffffffffffffffffffffffffffffffffffffffffff8214156147ea576147e9614727565b5b600182019050919050565b7f53616c65206d7573742062652061637469766520746f206d696e7420746f6b6560008201527f6e73000000000000000000000000000000000000000000000000000000000000602082015250565b6000614851602283613b6f565b915061485c826147f5565b604082019050919050565b6000602082019050818103600083015261488081614844565b9050919050565b7f4578636565646564206d617820746f6b656e2070757263686173650000000000600082015250565b60006148bd601b83613b6f565b91506148c882614887565b602082019050919050565b600060208201905081810360008301526148ec816148b0565b9050919050565b7f507572636861736520776f756c6420657863656564206d617820746f6b656e73600082015250565b6000614929602083613b6f565b9150614934826148f3565b602082019050919050565b600060208201905081810360008301526149588161491c565b9050919050565b600061496a82613c1f565b915061497583613c1f565b9250817fffffffffffffffffffffffffffffffffffffffffffffffffffffffffffffffff04831182151516156149ae576149ad614727565b5b828202905092915050565b7f45746865722076616c75652073656e74206973206e6f7420636f727265637400600082015250565b60006149ef601f83613b6f565b91506149fa826149b9565b602082019050919050565b60006020820190508181036000830152614a1e816149e2565b9050919050565b600081905092915050565b6000614a3b82613b64565b614a458185614a25565b9350614a55818560208601613b80565b80840191505092915050565b6000614a6d8285614a30565b9150614a798284614a30565b91508190509392505050565b7f416c6c6f77206c697374206973206e6f74206163746976650000000000000000600082015250565b6000614abb601883613b6f565b9150614ac682614a85565b602082019050919050565b60006020820190508181036000830152614aea81614aae565b9050919050565b7f4578636565646564206d617820617661696c61626c6520746f2070757263686160008201527f7365000000000000000000000000000000000000000000000000000000000000602082015250565b6000614b4d602283613b6f565b9150614b5882614af1565b604082019050919050565b60006020820190508181036000830152614b7c81614b40565b9050919050565b6000614b8e8261402b565b9150614b998361402b565b925082821015614bac57614bab614727565b5b828203905092915050565b7f4f776e61626c653a206e6577206f776e657220697320746865207a65726f206160008201527f6464726573730000000000000000000000000000000000000000000000000000602082015250565b6000614c13602683613b6f565b9150614c1e82614bb7565b604082019050919050565b60006020820190508181036000830152614c4281614c06565b9050919050565b7f4552433732313a207472616e736665722066726f6d20696e636f72726563742060008201527f6f776e6572000000000000000000000000000000000000000000000000000000602082015250565b6000614ca5602583613b6f565b9150614cb082614c49565b604082019050919050565b60006020820190508181036000830152614cd481614c98565b9050919050565b7f4552433732313a207472616e7366657220746f20746865207a65726f2061646460008201527f7265737300000000000000000000000000000000000000000000000000000000602082015250565b6000614d37602483613b6f565b9150614d4282614cdb565b604082019050919050565b60006020820190508181036000830152614d6681614d2a565b9050919050565b6000614d7882613c1f565b9150614d8383613c1f565b925082821015614d9657614d95614727565b5b828203905092915050565b7f4f776e61626c653a2063616c6c6572206973206e6f7420746865206f776e6572600082015250565b6000614dd7602083613b6f565b9150614de282614da1565b602082019050919050565b60006020820190508181036000830152614e0681614dca565b9050919050565b7f4552433732313a20617070726f766520746f2063616c6c657200000000000000600082015250565b6000614e43601983613b6f565b9150614e4e82614e0d565b602082019050919050565b60006020820190508181036000830152614e7281614e36565b9050919050565b7f4552433732313a207472616e7366657220746f206e6f6e20455243373231526560008201527f63656976657220696d706c656d656e7465720000000000000000000000000000602082015250565b6000614ed5603283613b6f565b9150614ee082614e79565b604082019050919050565b60006020820190508181036000830152614f0481614ec8565b9050919050565b7f4e487b7100000000000000000000000000000000000000000000000000000000600052601260045260246000fd5b6000614f4582613c1f565b9150614f5083613c1f565b925082614f6057614f5f614f0b565b5b828204905092915050565b6000614f7682613c1f565b9150614f8183613c1f565b925082614f9157614f90614f0b565b5b828206905092915050565b600081519050919050565b600082825260208201905092915050565b6000614fc382614f9c565b614fcd8185614fa7565b9350614fdd818560208601613b80565b614fe681613bb3565b840191505092915050565b60006080820190506150066000830187613cb4565b6150136020830186613cb4565b6150206040830185613d4a565b81810360608301526150328184614fb8565b905095945050505050565b60008151905061504c81613ad5565b92915050565b60006020828403121561506857615067613a9f565b5b60006150768482850161503d565b91505092915050565b7f4552433732313a206d696e7420746f20746865207a65726f2061646472657373600082015250565b60006150b5602083613b6f565b91506150c08261507f565b602082019050919050565b600060208201905081810360008301526150e4816150a8565b9050919050565b7f4552433732313a20746f6b656e20616c7265616479206d696e74656400000000600082015250565b6000615121601c83613b6f565b915061512c826150eb565b602082019050919050565b6000602082019050818103600083015261515081615114565b9050919050565b7f4e487b7100000000000000000000000000000000000000000000000000000000600052603160045260246000fdfea2646970667358221220da3de9991da79f5b09e013dac5d96e6f7e5f05bcbb46edd72f3b4eb6643a1f7364736f6c63430008090033",
  "linkReferences": {},
  "deployedLinkReferences": {}
}